{
  "contractName": "Casino",
  "abi": [
    {
      "constant": true,
      "inputs": [],
      "name": "numberOfBets",
      "outputs": [
        {
          "name": "",
          "type": "uint256"
        }
      ],
      "payable": false,
      "stateMutability": "view",
      "type": "function"
    },
    {
      "constant": true,
      "inputs": [
        {
          "name": "",
          "type": "address"
        }
      ],
      "name": "playerInfo",
      "outputs": [
        {
          "name": "amountBet",
          "type": "uint256"
        },
        {
          "name": "numberSelected",
          "type": "uint256"
        }
      ],
      "payable": false,
      "stateMutability": "view",
      "type": "function"
    },
    {
      "constant": true,
      "inputs": [],
      "name": "owner",
      "outputs": [
        {
          "name": "",
          "type": "address"
        }
      ],
      "payable": false,
      "stateMutability": "view",
      "type": "function"
    },
    {
      "constant": true,
      "inputs": [],
      "name": "minimumBet",
      "outputs": [
        {
          "name": "",
          "type": "uint256"
        }
      ],
      "payable": false,
      "stateMutability": "view",
      "type": "function"
    },
    {
      "constant": true,
      "inputs": [],
      "name": "maxAmountOfBets",
      "outputs": [
        {
          "name": "",
          "type": "uint256"
        }
      ],
      "payable": false,
      "stateMutability": "view",
      "type": "function"
    },
    {
      "constant": true,
      "inputs": [
        {
          "name": "",
          "type": "uint256"
        }
      ],
      "name": "players",
      "outputs": [
        {
          "name": "",
          "type": "address"
        }
      ],
      "payable": false,
      "stateMutability": "view",
      "type": "function"
    },
    {
      "constant": true,
      "inputs": [],
      "name": "totalBet",
      "outputs": [
        {
          "name": "",
          "type": "uint256"
        }
      ],
      "payable": false,
      "stateMutability": "view",
      "type": "function"
    },
    {
      "inputs": [
        {
          "name": "_minimumBet",
          "type": "uint256"
        }
      ],
      "payable": false,
      "stateMutability": "nonpayable",
      "type": "constructor"
    },
    {
      "payable": true,
      "stateMutability": "payable",
      "type": "fallback"
    },
    {
      "constant": false,
      "inputs": [],
      "name": "kill",
      "outputs": [],
      "payable": false,
      "stateMutability": "nonpayable",
      "type": "function"
    },
    {
      "constant": false,
      "inputs": [
        {
          "name": "numberSelected",
          "type": "uint256"
        }
      ],
      "name": "bet",
      "outputs": [],
      "payable": true,
      "stateMutability": "payable",
      "type": "function"
    },
    {
      "constant": true,
      "inputs": [
        {
          "name": "player",
          "type": "address"
        }
      ],
      "name": "checkPlayerExists",
      "outputs": [
        {
          "name": "",
          "type": "bool"
        }
      ],
      "payable": false,
      "stateMutability": "view",
      "type": "function"
    },
    {
      "constant": true,
      "inputs": [],
      "name": "generateNumberWinner",
      "outputs": [
        {
          "name": "",
          "type": "uint256"
        }
      ],
      "payable": false,
      "stateMutability": "view",
      "type": "function"
    },
    {
      "constant": false,
      "inputs": [
        {
          "name": "winningNumber",
          "type": "uint256"
        }
      ],
      "name": "distributePrizes",
      "outputs": [],
      "payable": false,
      "stateMutability": "nonpayable",
      "type": "function"
    }
  ],
  "bytecode": "0x60606040526064600455341561001457600080fd5b604051602080610a8383398101604052808051906020019091905050336000806101000a81548173ffffffffffffffffffffffffffffffffffffffff021916908373ffffffffffffffffffffffffffffffffffffffff16021790555060008114151561008257806001819055505b506109f1806100926000396000f3006060604052600436106100ba576000357c0100000000000000000000000000000000000000000000000000000000900463ffffffff1680630a50e361146100bc5780632ca8c6d3146100e55780634081d9161461010e57806341c0e1b51461015f5780634b114691146101745780636ca3fc3b146101c85780637365870b146101eb5780638da5cb5b14610203578063c38a8afd14610258578063e08a96cd14610281578063f71d96cb146102aa578063fe5e18531461030d575b005b34156100c757600080fd5b6100cf610336565b6040518082815260200191505060405180910390f35b34156100f057600080fd5b6100f8610352565b6040518082815260200191505060405180910390f35b341561011957600080fd5b610145600480803573ffffffffffffffffffffffffffffffffffffffff16906020019091905050610358565b604051808215151515815260200191505060405180910390f35b341561016a57600080fd5b6101726103fc565b005b341561017f57600080fd5b6101ab600480803573ffffffffffffffffffffffffffffffffffffffff1690602001909190505061048d565b604051808381526020018281526020019250505060405180910390f35b34156101d357600080fd5b6101e960048080359060200190919050506104b1565b005b6102016004808035906020019091905050610716565b005b341561020e57600080fd5b610216610893565b604051808273ffffffffffffffffffffffffffffffffffffffff1673ffffffffffffffffffffffffffffffffffffffff16815260200191505060405180910390f35b341561026357600080fd5b61026b6108b8565b6040518082815260200191505060405180910390f35b341561028c57600080fd5b6102946108be565b6040518082815260200191505060405180910390f35b34156102b557600080fd5b6102cb60048080359060200190919050506108c4565b604051808273ffffffffffffffffffffffffffffffffffffffff1673ffffffffffffffffffffffffffffffffffffffff16815260200191505060405180910390f35b341561031857600080fd5b610320610903565b6040518082815260200191505060405180910390f35b6000806001600a4381151561034757fe5b060190508091505090565b60035481565b600080600090505b6005805490508110156103f1578273ffffffffffffffffffffffffffffffffffffffff1660058281548110151561039357fe5b906000526020600020900160009054906101000a900473ffffffffffffffffffffffffffffffffffffffff1673ffffffffffffffffffffffffffffffffffffffff1614156103e457600191506103f6565b8080600101915050610360565b600091505b50919050565b6000809054906101000a900473ffffffffffffffffffffffffffffffffffffffff1673ffffffffffffffffffffffffffffffffffffffff163373ffffffffffffffffffffffffffffffffffffffff16141561048b576000809054906101000a900473ffffffffffffffffffffffffffffffffffffffff1673ffffffffffffffffffffffffffffffffffffffff16ff5b565b60066020528060005260406000206000915090508060000154908060010154905082565b6104b9610909565b600080600080600060045460035410151561070d5760009450600093505b600580549050841015610619576005848154811015156104f357fe5b906000526020600020900160009054906101000a900473ffffffffffffffffffffffffffffffffffffffff16925086600660008573ffffffffffffffffffffffffffffffffffffffff1673ffffffffffffffffffffffffffffffffffffffff1681526020019081526020016000206001015414156105ba5782868660648110151561057a57fe5b602002019073ffffffffffffffffffffffffffffffffffffffff16908173ffffffffffffffffffffffffffffffffffffffff168152505084806001019550505b600660008473ffffffffffffffffffffffffffffffffffffffff1673ffffffffffffffffffffffffffffffffffffffff1681526020019081526020016000206000808201600090556001820160009055505083806001019450506104d7565b6000606411151561062657fe5b606460025481151561063457fe5b049150600090505b848110156106ec57600073ffffffffffffffffffffffffffffffffffffffff16868260648110151561066a57fe5b602002015173ffffffffffffffffffffffffffffffffffffffff161415156106df57858160648110151561069a57fe5b602002015173ffffffffffffffffffffffffffffffffffffffff166108fc839081150290604051600060405180830381858888f1935050505015156106de57600080fd5b5b808060010191505061063c565b60006005816106fb9190610948565b50600060028190555060006003819055505b50505050505050565b600061072133610358565b15151561072d57600080fd5b6001821015801561073f5750600a8211155b151561074a57600080fd5b600154341015151561075b57600080fd5b34600660003373ffffffffffffffffffffffffffffffffffffffff1673ffffffffffffffffffffffffffffffffffffffff1681526020019081526020016000206000018190555081600660003373ffffffffffffffffffffffffffffffffffffffff1673ffffffffffffffffffffffffffffffffffffffff168152602001908152602001600020600101819055506003600081548092919060010191905055506005805480600101828161080f9190610974565b9160005260206000209001600033909190916101000a81548173ffffffffffffffffffffffffffffffffffffffff021916908373ffffffffffffffffffffffffffffffffffffffff160217905550503460026000828254019250508190555060045460035410151561088f57610883610336565b905061088e816104b1565b5b5050565b6000809054906101000a900473ffffffffffffffffffffffffffffffffffffffff1681565b60015481565b60045481565b6005818154811015156108d357fe5b90600052602060002090016000915054906101000a900473ffffffffffffffffffffffffffffffffffffffff1681565b60025481565b610c80604051908101604052806064905b600073ffffffffffffffffffffffffffffffffffffffff1681526020019060019003908161091a5790505090565b81548183558181151161096f5781836000526020600020918201910161096e91906109a0565b5b505050565b81548183558181151161099b5781836000526020600020918201910161099a91906109a0565b5b505050565b6109c291905b808211156109be5760008160009055506001016109a6565b5090565b905600a165627a7a72305820d1d628bfe6dfb6a70496e3feb9c052d42cb65a71eb7c00eedd5812434e0b02540029",
  "source": "pragma solidity ^0.4.20;\n\ncontract Casino {\n   address public owner;\n   uint256 public minimumBet;\n   uint256 public totalBet;\n   uint256 public numberOfBets;\n   uint256 public maxAmountOfBets = 100;\n   address[] public players;\n\n   struct Player {\n      uint256 amountBet;\n      uint256 numberSelected;\n   }\n   // The address of the player => user info\n   mapping(address => Player) public playerInfo;\n   function() public payable {} //Fallback function in case someone sends eth to this contract\n\n\n   function Casino(uint256 _minimumBet) public {\n      owner = msg.sender;\n      if(_minimumBet != 0) minimumBet = _minimumBet;\n   }\n\n   function kill() public {\n      if(msg.sender == owner) selfdestruct(owner);\n   }\n\n   // Bet for a number between 1 and 10 both inclusive\n   function bet(uint256 numberSelected) public payable {\n      require(!checkPlayerExists(msg.sender));\n      require(numberSelected >= 1 && numberSelected <= 10);\n      require(msg.value >= minimumBet);\n      playerInfo[msg.sender].amountBet = msg.value;\n      playerInfo[msg.sender].numberSelected = numberSelected;\n      numberOfBets++;\n      players.push(msg.sender);\n      totalBet += msg.value;\n\n      if(numberOfBets >= maxAmountOfBets) {\n          uint256 randomNumber = generateNumberWinner();\n          distributePrizes(randomNumber);\n      }\n   }\n\n   function checkPlayerExists(address player) public constant returns(bool){\n      for(uint256 i = 0; i < players.length; i++){\n          if(players[i] == player) return true;\n      }\n      return false;\n   }\n\n   // Modifier to only allow the execution of functions when the bets are completed\n   modifier onEndGame(){\n      if(numberOfBets >= maxAmountOfBets) _;\n   }\n\n   // Generates a number between 1 and 10 that will be the winner\n   function generateNumberWinner() public constant returns(uint256) { //TODO add onEndGame here\n      uint256 numberGenerated = block.number % 10 + 1; // TODO change to be truly random\n      return numberGenerated;\n   }\n\n\n   // Sends the corresponding ether to each winner depending on the total bets\n   function distributePrizes(uint256 winningNumber) onEndGame {\n      address[100] memory winners;\n      uint256 count = 0; // This is the count for the array of winners\n      for(uint256 i = 0; i < players.length; i++){\n         address playerAddress = players[i];\n         if(playerInfo[playerAddress].numberSelected == winningNumber){\n            winners[count] = playerAddress;\n            count++;\n         }\n         delete playerInfo[playerAddress]; // Delete all the players\n      }\n      assert(winners.length > 0); //TODO double check so you don't do divide by 0\n      uint256 winnerEtherAmount = totalBet / winners.length; // How much each winner gets\n\n      for(uint256 j = 0; j < count; j++){\n         if(winners[j] != address(0)) // Check that the address in this fixed array is not empty\n         winners[j].transfer(winnerEtherAmount);\n      }\n\n      players.length = 0; // Delete all the players array\n      totalBet = 0;\n      numberOfBets = 0;\n   }\n}\n",
  "sourcePath": "/Users/victorcheng/Desktop/Curr_projects/casino-ethereum/contracts/Casino.sol",
  "compiler": {
    "name": "solc",
    "version": "0.4.21+commit.dfe3193c.Emscripten.clang"
  },
  "schemaVersion": "2.0.0",
  "updatedAt": "2018-03-31T21:14:37.583Z"
}